{
  "contractName": "tender",
  "abi": [
    {
      "constant": true,
      "inputs": [
        {
          "internalType": "uint256",
          "name": "",
          "type": "uint256"
        }
      ],
      "name": "App_Con",
      "outputs": [
        {
          "internalType": "string",
          "name": "project_name",
          "type": "string"
        },
        {
          "internalType": "uint256",
          "name": "utr",
          "type": "uint256"
        },
        {
          "internalType": "uint256",
          "name": "suid",
          "type": "uint256"
        }
      ],
      "payable": false,
      "stateMutability": "view",
      "type": "function"
    },
    {
      "constant": true,
      "inputs": [
        {
          "internalType": "uint256",
          "name": "",
          "type": "uint256"
        }
      ],
      "name": "Contractor",
      "outputs": [
        {
          "internalType": "uint256",
          "name": "cuid",
          "type": "uint256"
        },
        {
          "internalType": "string",
          "name": "company_name",
          "type": "string"
        },
        {
          "internalType": "address",
          "name": "add",
          "type": "address"
        }
      ],
      "payable": false,
      "stateMutability": "view",
      "type": "function"
    },
    {
      "constant": true,
      "inputs": [
        {
          "internalType": "uint256",
          "name": "",
          "type": "uint256"
        }
      ],
      "name": "Req_Con",
      "outputs": [
        {
          "internalType": "uint256",
          "name": "cid",
          "type": "uint256"
        },
        {
          "internalType": "uint256",
          "name": "cuid",
          "type": "uint256"
        },
        {
          "internalType": "string",
          "name": "project_name",
          "type": "string"
        },
        {
          "internalType": "string",
          "name": "supplier_name",
          "type": "string"
        },
        {
          "internalType": "uint256",
          "name": "budget",
          "type": "uint256"
        },
        {
          "internalType": "enum tender.Status",
          "name": "status",
          "type": "uint8"
        }
      ],
      "payable": false,
      "stateMutability": "view",
      "type": "function"
    },
    {
      "constant": true,
      "inputs": [],
      "name": "app_count",
      "outputs": [
        {
          "internalType": "uint256",
          "name": "",
          "type": "uint256"
        }
      ],
      "payable": false,
      "stateMutability": "view",
      "type": "function"
    },
    {
      "constant": true,
      "inputs": [
        {
          "internalType": "address",
          "name": "",
          "type": "address"
        }
      ],
      "name": "contractorids",
      "outputs": [
        {
          "internalType": "uint256",
          "name": "cuid",
          "type": "uint256"
        }
      ],
      "payable": false,
      "stateMutability": "view",
      "type": "function"
    },
    {
      "constant": true,
      "inputs": [],
      "name": "idc",
      "outputs": [
        {
          "internalType": "uint256",
          "name": "",
          "type": "uint256"
        }
      ],
      "payable": false,
      "stateMutability": "view",
      "type": "function"
    },
    {
      "constant": false,
      "inputs": [
        {
          "internalType": "uint256",
          "name": "_uid",
          "type": "uint256"
        },
        {
          "internalType": "string",
          "name": "compname",
          "type": "string"
        }
      ],
      "name": "registerContractor",
      "outputs": [],
      "payable": false,
      "stateMutability": "nonpayable",
      "type": "function"
    },
    {
      "constant": false,
      "inputs": [
        {
          "internalType": "string",
          "name": "project",
          "type": "string"
        },
        {
          "internalType": "string",
          "name": "supplier",
          "type": "string"
        },
        {
          "internalType": "uint256",
          "name": "amount",
          "type": "uint256"
        }
      ],
      "name": "insertTender",
      "outputs": [],
      "payable": false,
      "stateMutability": "nonpayable",
      "type": "function"
    },
    {
      "constant": false,
      "inputs": [
        {
          "internalType": "uint256",
          "name": "con_id",
          "type": "uint256"
        }
      ],
      "name": "approveTender",
      "outputs": [],
      "payable": false,
      "stateMutability": "nonpayable",
      "type": "function"
    },
    {
      "constant": false,
      "inputs": [
        {
          "internalType": "uint256",
          "name": "con_id",
          "type": "uint256"
        }
      ],
      "name": "rejectTender",
      "outputs": [],
      "payable": false,
      "stateMutability": "nonpayable",
      "type": "function"
    },
    {
      "constant": false,
      "inputs": [
        {
          "internalType": "uint256",
          "name": "con_id",
          "type": "uint256"
        }
      ],
      "name": "disburseTender",
      "outputs": [],
      "payable": false,
      "stateMutability": "nonpayable",
      "type": "function"
    },
    {
      "constant": false,
      "inputs": [
        {
          "internalType": "string",
          "name": "pname",
          "type": "string"
        },
        {
          "internalType": "uint256",
          "name": "utr_no",
          "type": "uint256"
        },
        {
          "internalType": "uint256",
          "name": "uid",
          "type": "uint256"
        }
      ],
      "name": "funds_usage",
      "outputs": [],
      "payable": false,
      "stateMutability": "nonpayable",
      "type": "function"
    }
  ],
  "bytecode": "0x608060405260008055600060015534801561001957600080fd5b50610b66806100296000396000f3fe608060405234801561001057600080fd5b50600436106100b45760003560e01c806387643bdd1161007157806387643bdd14610461578063b92ee9981461047b578063c2ec1ee1146104a1578063cc525500146104be578063dab8e728146104db578063ea798a8714610606576100b4565b80630e5f2f12146100b957806317db39d11461015c5780631b6cb08f146101c95780635df53ab8146101e85780637319690f14610293578063812067fd1461033c575b600080fd5b6100d6600480360360208110156100cf57600080fd5b503561060e565b6040518080602001848152602001838152602001828103825285818151815260200191508051906020019080838360005b8381101561011f578181015183820152602001610107565b50505050905090810190601f16801561014c5780820380516001836020036101000a031916815260200191505b5094505050505060405180910390f35b6101796004803603602081101561017257600080fd5b50356106bb565b604080518481526001600160a01b0383169181019190915260606020808301828152855192840192909252845160808401918601908083836000831561011f578181015183820152602001610107565b6101e6600480360360208110156101df57600080fd5b5035610771565b005b6101e6600480360360408110156101fe57600080fd5b81359190810190604081016020820135600160201b81111561021f57600080fd5b82018360208201111561023157600080fd5b803590602001918460018302840111600160201b8311171561025257600080fd5b91908080601f016020809104026020016040519081016040528093929190818152602001838380828437600092019190915250929550610798945050505050565b6101e6600480360360608110156102a957600080fd5b810190602081018135600160201b8111156102c357600080fd5b8201836020820111156102d557600080fd5b803590602001918460018302840111600160201b831117156102f657600080fd5b91908080601f01602080910402602001604051908101604052809392919081815260200183838082843760009201919091525092955050823593505050602001356107f5565b6103596004803603602081101561035257600080fd5b5035610847565b60405180878152602001868152602001806020018060200185815260200184600381111561038357fe5b60ff168152602001838103835287818151815260200191508051906020019080838360005b838110156103c05781810151838201526020016103a8565b50505050905090810190601f1680156103ed5780820380516001836020036101000a031916815260200191505b50838103825286518152865160209182019188019080838360005b83811015610420578181015183820152602001610408565b50505050905090810190601f16801561044d5780820380516001836020036101000a031916815260200191505b509850505050505050505060405180910390f35b610469610991565b60408051918252519081900360200190f35b6104696004803603602081101561049157600080fd5b50356001600160a01b0316610997565b6101e6600480360360208110156104b757600080fd5b50356109a9565b6101e6600480360360208110156104d457600080fd5b50356109cb565b6101e6600480360360608110156104f157600080fd5b810190602081018135600160201b81111561050b57600080fd5b82018360208201111561051d57600080fd5b803590602001918460018302840111600160201b8311171561053e57600080fd5b91908080601f0160208091040260200160405190810160405280939291908181526020018383808284376000920191909152509295949360208101935035915050600160201b81111561059057600080fd5b8201836020820111156105a257600080fd5b803590602001918460018302840111600160201b831117156105c357600080fd5b91908080601f01602080910402602001604051908101604052809392919081815260200183838082843760009201919091525092955050913592506109ed915050565b610469610a90565b60036020908152600091825260409182902080548351601f600260001961010060018616150201909316929092049182018490048402810184019094528084529092918391908301828280156106a55780601f1061067a576101008083540402835291602001916106a5565b820191906000526020600020905b81548152906001019060200180831161068857829003601f168201915b5050505050908060010154908060020154905083565b6004602090815260009182526040918290208054600180830180548651600293821615610100026000190190911692909204601f8101869004860283018601909652858252919492939092908301828280156107585780601f1061072d57610100808354040283529160200191610758565b820191906000526020600020905b81548152906001019060200180831161073b57829003601f168201915b505050600290930154919250506001600160a01b031683565b600081815260026020526040902060050180546003919060ff19166001835b021790555050565b600082815260046020908152604090912083815582516107c092600190920191840190610a96565b5050600081815260046020908152604080832060020180546001600160a01b0319163390811790915583526005909152902055565b600180548101908190556000908152600360209081526040909120845161081e92860190610a96565b506001805460009081526003602052604080822083019490945590548152919091206002015550565b6002602081815260009283526040928390208054600180830154838601805488519381161561010002600019011696909604601f8101869004860283018601909752868252919591949293909291908301828280156108e75780601f106108bc576101008083540402835291602001916108e7565b820191906000526020600020905b8154815290600101906020018083116108ca57829003601f168201915b5050505060038301805460408051602060026001851615610100026000190190941693909304601f81018490048402820184019092528181529495949350908301828280156109775780601f1061094c57610100808354040283529160200191610977565b820191906000526020600020905b81548152906001019060200180831161095a57829003601f168201915b50505050600483015460059093015491929160ff16905086565b60015481565b60056020526000908152604090205481565b6000818152600260208190526040909120600501805460ff1916600183610790565b600081815260026020526040902060050180546001919060ff19168280610790565b6000805460019081018083558083526002602081815260408086209384553386526005825280862054838352939094019290925583548452919092208551610a3d93919092019190860190610a96565b506000805481526002602090815260409091208351610a6492600390920191850190610a96565b5060008054815260026020526040808220600401929092558054815220600501805460ff191690555050565b60005481565b828054600181600116156101000203166002900490600052602060002090601f016020900481019282601f10610ad757805160ff1916838001178555610b04565b82800160010185558215610b04579182015b82811115610b04578251825591602001919060010190610ae9565b50610b10929150610b14565b5090565b610b2e91905b80821115610b105760008155600101610b1a565b9056fea265627a7a7231582074092155a6f1f57c6aba64d01a0dbe072d8875072c52033bb8b1def029e3a33564736f6c634300050c0032",
  "source": "pragma solidity ^0.5.0;\r\n\r\ncontract tender{\r\nenum Status {scrutiny,approved,rejected,disbursed}\r\n    struct req_con{\r\n        uint cid;\r\n        uint cuid;\r\n        string project_name;\r\n        string supplier_name;\r\n        uint budget;\r\n        Status status;\r\n    }\r\n    \r\n    struct app_con{\r\n        string project_name;\r\n        uint utr;\r\n        uint suid;\r\n    }\r\n    \r\n    struct contractor{\r\n        uint cuid;\r\n        string company_name;\r\n        address add;\r\n    }\r\n    \r\n    \r\n      struct ContractorId{\r\n        uint cuid;\r\n    }\r\n    \r\n    uint public idc=0;\r\n    uint public app_count=0;\r\n    mapping(uint => req_con) public Req_Con;\r\n    mapping(uint => app_con) public App_Con;\r\n    mapping(uint => contractor) public Contractor;\r\n     mapping(address => ContractorId) public contractorids;\r\n    \r\n    \r\n    function registerContractor(uint _uid,string memory compname) public{\r\n        Contractor[_uid].cuid=_uid;\r\n        Contractor[_uid].company_name=compname;\r\n        Contractor[_uid].add=msg.sender;\r\n        contractorids[msg.sender].cuid=_uid;\r\n        \r\n    }\r\n    \r\n    function insertTender(string memory project,string memory supplier,uint amount)public\r\n    {\r\n        idc=idc+1;\r\n        Req_Con[idc].cid=idc;\r\n        Req_Con[idc].cuid= contractorids[msg.sender].cuid;\r\n    \r\n        Req_Con[idc].project_name=project;\r\n        Req_Con[idc].supplier_name=supplier;\r\n        Req_Con[idc].budget=amount;\r\n        Req_Con[idc].status=Status.scrutiny;\r\n    }\r\n    \r\n    \r\n    function approveTender(uint con_id)public{\r\n        Req_Con[con_id].status=Status.approved;\r\n    }\r\n    \r\n    function rejectTender(uint con_id)public{\r\n        Req_Con[con_id].status=Status.rejected;\r\n    }\r\n    \r\n    function disburseTender(uint con_id)public{\r\n        Req_Con[con_id].status=Status.disbursed;\r\n    }\r\n    \r\n    function funds_usage(string memory pname,uint utr_no,uint uid)public{\r\n        app_count=app_count+1;\r\n        App_Con[app_count].project_name=pname;\r\n        App_Con[app_count].utr=utr_no;\r\n        App_Con[app_count].suid=uid;\r\n    }\r\n}",
  "sourcePath": "C:/Users/radhika/Desktop/DJSCE/Fraud_Detection/contracts/tender.sol",
  "compiler": {
    "name": "solc",
    "version": "0.5.12+commit.7709ece9.Emscripten.clang"
  },
  "schemaVersion": "3.0.19",
  "updatedAt": "2020-03-08T02:35:26.799Z",
  "networkType": "ethereum",
  "devdoc": {
    "methods": {}
  },
  "userdoc": {
    "methods": {}
  }
}